{
  "contractName": "Buyer",
  "abi": [
    {
      "constant": false,
      "inputs": [
        {
          "internalType": "string",
          "name": "_productName",
          "type": "string"
        },
        {
          "internalType": "uint256",
          "name": "_productQuantity",
          "type": "uint256"
        },
        {
          "internalType": "uint256",
          "name": "_productPrice",
          "type": "uint256"
        },
        {
          "internalType": "address payable",
          "name": "_productSeller",
          "type": "address"
        }
      ],
      "name": "getProductDetailsFromSeller",
      "outputs": [],
      "payable": false,
      "stateMutability": "nonpayable",
      "type": "function"
    },
    {
      "constant": false,
      "inputs": [
        {
          "internalType": "uint256",
          "name": "_productId",
          "type": "uint256"
        },
        {
          "internalType": "uint256",
          "name": "_productQuantity",
          "type": "uint256"
        }
      ],
      "name": "orderPlaced",
      "outputs": [
        {
          "internalType": "address",
          "name": "",
          "type": "address"
        },
        {
          "internalType": "uint256",
          "name": "",
          "type": "uint256"
        },
        {
          "internalType": "uint256",
          "name": "",
          "type": "uint256"
        }
      ],
      "payable": true,
      "stateMutability": "payable",
      "type": "function"
    },
    {
      "constant": true,
      "inputs": [],
      "name": "getPlacedProductCount",
      "outputs": [
        {
          "internalType": "uint256",
          "name": "",
          "type": "uint256"
        }
      ],
      "payable": false,
      "stateMutability": "view",
      "type": "function"
    },
    {
      "constant": false,
      "inputs": [
        {
          "internalType": "uint256",
          "name": "_productId",
          "type": "uint256"
        }
      ],
      "name": "orderShipped",
      "outputs": [],
      "payable": false,
      "stateMutability": "nonpayable",
      "type": "function"
    },
    {
      "constant": true,
      "inputs": [],
      "name": "getShippedProductCount",
      "outputs": [
        {
          "internalType": "uint256",
          "name": "",
          "type": "uint256"
        }
      ],
      "payable": false,
      "stateMutability": "view",
      "type": "function"
    },
    {
      "constant": false,
      "inputs": [
        {
          "internalType": "uint256",
          "name": "_productId",
          "type": "uint256"
        }
      ],
      "name": "orderDelivered",
      "outputs": [],
      "payable": false,
      "stateMutability": "nonpayable",
      "type": "function"
    },
    {
      "constant": true,
      "inputs": [],
      "name": "getDeliveredProductCount",
      "outputs": [
        {
          "internalType": "uint256",
          "name": "",
          "type": "uint256"
        }
      ],
      "payable": false,
      "stateMutability": "view",
      "type": "function"
    },
    {
      "constant": true,
      "inputs": [
        {
          "internalType": "uint256",
          "name": "_productId",
          "type": "uint256"
        }
      ],
      "name": "getProductDetails",
      "outputs": [
        {
          "internalType": "string",
          "name": "",
          "type": "string"
        },
        {
          "internalType": "uint256",
          "name": "",
          "type": "uint256"
        },
        {
          "internalType": "address",
          "name": "",
          "type": "address"
        },
        {
          "internalType": "string",
          "name": "",
          "type": "string"
        },
        {
          "internalType": "uint256",
          "name": "",
          "type": "uint256"
        },
        {
          "internalType": "uint256",
          "name": "",
          "type": "uint256"
        }
      ],
      "payable": false,
      "stateMutability": "view",
      "type": "function"
    },
    {
      "constant": true,
      "inputs": [
        {
          "internalType": "uint256",
          "name": "_productId",
          "type": "uint256"
        }
      ],
      "name": "getOrderLog",
      "outputs": [
        {
          "internalType": "uint256",
          "name": "",
          "type": "uint256"
        },
        {
          "internalType": "uint256",
          "name": "",
          "type": "uint256"
        },
        {
          "internalType": "uint256",
          "name": "",
          "type": "uint256"
        },
        {
          "internalType": "enum Buyer.OrderStatus",
          "name": "",
          "type": "uint8"
        }
      ],
      "payable": false,
      "stateMutability": "view",
      "type": "function"
    },
    {
      "constant": false,
      "inputs": [],
      "name": "putMoney",
      "outputs": [],
      "payable": true,
      "stateMutability": "payable",
      "type": "function"
    },
    {
      "constant": true,
      "inputs": [],
      "name": "getBalance",
      "outputs": [
        {
          "internalType": "uint256",
          "name": "",
          "type": "uint256"
        }
      ],
      "payable": false,
      "stateMutability": "view",
      "type": "function"
    }
  ],
  "bytecode": "0x608060405234801561001057600080fd5b50610f9f806100206000396000f3fe60806040526004361061009c5760003560e01c806373b54dba1161006457806373b54dba146103205780639c4eee0e14610392578063c74acede146103bd578063e5d39143146103c7578063e742a182146103f2578063f2c290cf1461042d5761009c565b806312065fe0146100a1578063489f943a146100cc57806349311f3314610107578063626476fd146101325780636813b53b146101b8575b600080fd5b3480156100ad57600080fd5b506100b6610529565b6040518082815260200191505060405180910390f35b3480156100d857600080fd5b50610105600480360360208110156100ef57600080fd5b8101908080359060200190929190505050610531565b005b34801561011357600080fd5b5061011c6105df565b6040518082815260200191505060405180910390f35b6101686004803603604081101561014857600080fd5b8101908080359060200190929190803590602001909291905050506105e9565b604051808473ffffffffffffffffffffffffffffffffffffffff1673ffffffffffffffffffffffffffffffffffffffff168152602001838152602001828152602001935050505060405180910390f35b3480156101c457600080fd5b506101f1600480360360208110156101db57600080fd5b8101908080359060200190929190505050610908565b60405180806020018781526020018673ffffffffffffffffffffffffffffffffffffffff1673ffffffffffffffffffffffffffffffffffffffff16815260200180602001858152602001848152602001838103835289818151815260200191508051906020019080838360005b8381101561027957808201518184015260208101905061025e565b50505050905090810190601f1680156102a65780820380516001836020036101000a031916815260200191505b50838103825286818151815260200191508051906020019080838360005b838110156102df5780820151818401526020810190506102c4565b50505050905090810190601f16801561030c5780820380516001836020036101000a031916815260200191505b509850505050505050505060405180910390f35b34801561032c57600080fd5b506103596004803603602081101561034357600080fd5b8101908080359060200190929190505050610b0a565b6040518085815260200184815260200183815260200182600281111561037b57fe5b60ff16815260200194505050505060405180910390f35b34801561039e57600080fd5b506103a7610b88565b6040518082815260200191505060405180910390f35b6103c5610b92565b005b3480156103d357600080fd5b506103dc610b94565b6040518082815260200191505060405180910390f35b3480156103fe57600080fd5b5061042b6004803603602081101561041557600080fd5b8101908080359060200190929190505050610b9e565b005b34801561043957600080fd5b506105276004803603608081101561045057600080fd5b810190808035906020019064010000000081111561046d57600080fd5b82018360208201111561047f57600080fd5b803590602001918460018302840111640100000000831117156104a157600080fd5b91908080601f016020809104026020016040519081016040528093929190818152602001838380828437600081840152601f19601f8201169050808301925050505050505091929192908035906020019092919080359060200190929190803573ffffffffffffffffffffffffffffffffffffffff169060200190929190505050610c4c565b005b600047905090565b6000600281111561053e57fe5b6003600083815260200190815260200160002060030160009054906101000a900460ff16600281111561056d57fe5b1461057757600080fd5b60016003600083815260200190815260200160002060030160006101000a81548160ff021916908360028111156105aa57fe5b021790555042600360008381526020019081526020016000206002018190555060056000815480929190600101919050555050565b6000600654905090565b60008060008060003373ffffffffffffffffffffffffffffffffffffffff1673ffffffffffffffffffffffffffffffffffffffff16815260200190815260200160002085908060018154018082558091505090600182039060005260206000200160009091929091909150555061065e610e79565b600160008781526020019081526020016000206040518060c0016040529081600082018054600181600116156101000203166002900480601f0160208091040260200160405190810160405280929190818152602001828054600181600116156101000203166002900480156107155780601f106106ea57610100808354040283529160200191610715565b820191906000526020600020905b8154815290600101906020018083116106f857829003601f168201915b50505050508152602001600182015481526020016002820160009054906101000a900473ffffffffffffffffffffffffffffffffffffffff1673ffffffffffffffffffffffffffffffffffffffff1673ffffffffffffffffffffffffffffffffffffffff168152602001600382018054600181600116156101000203166002900480601f0160208091040260200160405190810160405280929190818152602001828054600181600116156101000203166002900480156108175780601f106107ec57610100808354040283529160200191610817565b820191906000526020600020905b8154815290600101906020018083116107fa57829003601f168201915b5050505050815260200160048201548152602001600582015481525050905060008160a001518602905061084f826040015182610db8565b60405180608001604052808881526020018281526020014281526020016000600281111561087957fe5b8152506003600089815260200190815260200160002060008201518160000155602082015181600101556040820151816002015560608201518160030160006101000a81548160ff021916908360028111156108d157fe5b021790555090505060046000815480929190600101919050555081604001518260a001518782925094509450945050509250925092565b60606000806060600080600160008881526020019081526020016000206000016001600089815260200190815260200160002060010154600160008a815260200190815260200160002060020160009054906101000a900473ffffffffffffffffffffffffffffffffffffffff16600160008b8152602001908152602001600020600301600160008c815260200190815260200160002060040154600160008d815260200190815260200160002060050154858054600181600116156101000203166002900480601f016020809104026020016040519081016040528092919081815260200182805460018160011615610100020316600290048015610a4f5780601f10610a2457610100808354040283529160200191610a4f565b820191906000526020600020905b815481529060010190602001808311610a3257829003601f168201915b50505050509550839350828054600181600116156101000203166002900480601f016020809104026020016040519081016040528092919081815260200182805460018160011615610100020316600290048015610aee5780601f10610ac357610100808354040283529160200191610aee565b820191906000526020600020905b815481529060010190602001808311610ad157829003601f168201915b5050505050925095509550955095509550955091939550919395565b6000806000806003600086815260200190815260200160002060000154600360008781526020019081526020016000206001015460036000888152602001908152602001600020600201546003600089815260200190815260200160002060030160009054906101000a900460ff1693509350935093509193509193565b6000600454905090565b565b6000600554905090565b60016002811115610bab57fe5b6003600083815260200190815260200160002060030160009054906101000a900460ff166002811115610bda57fe5b14610be457600080fd5b60026003600083815260200190815260200160002060030160006101000a81548160ff02191690836002811115610c1757fe5b021790555042600360008381526020019081526020016000206002018190555060066000815480929190600101919050555050565b60006002600081819054906101000a900460ff168092919060010191906101000a81548160ff021916908360ff16021790555060ff1690506040518060c001604052808681526020018281526020018373ffffffffffffffffffffffffffffffffffffffff1681526020016040518060400160405280600981526020017f417661696c61626c650000000000000000000000000000000000000000000000815250815260200185815260200184815250600160008381526020019081526020016000206000820151816000019080519060200190610d2b929190610ec5565b506020820151816001015560408201518160020160006101000a81548173ffffffffffffffffffffffffffffffffffffffff021916908373ffffffffffffffffffffffffffffffffffffffff1602179055506060820151816003019080519060200190610d99929190610ec5565b506080820151816004015560a082015181600501559050505050505050565b47811115610e2e576040517f08c379a00000000000000000000000000000000000000000000000000000000081526004018080602001828103825260158152602001807f496e73756666696369656e742062616c616e63652e000000000000000000000081525060200191505060405180910390fd5b8173ffffffffffffffffffffffffffffffffffffffff166108fc829081150290604051600060405180830381858888f19350505050158015610e74573d6000803e3d6000fd5b505050565b6040518060c001604052806060815260200160008152602001600073ffffffffffffffffffffffffffffffffffffffff1681526020016060815260200160008152602001600081525090565b828054600181600116156101000203166002900490600052602060002090601f016020900481019282601f10610f0657805160ff1916838001178555610f34565b82800160010185558215610f34579182015b82811115610f33578251825591602001919060010190610f18565b5b509050610f419190610f45565b5090565b610f6791905b80821115610f63576000816000905550600101610f4b565b5090565b9056fea265627a7a7231582065f3b30ee84c9717da10c80aa42487a635eac67590302fff06ba64ff3482aed064736f6c63430005100032",
  "source": "// SPDX-License-Identifier: GPL-3.0\r\npragma solidity >=0.5.0 <0.8.0;\r\n// import \"./Supplier.sol\";\r\n\r\ncontract Buyer {\r\n\r\n    enum OrderStatus { Placed, Shipped, Delivered }\r\n    \r\n    // Product's Details\r\n    struct Product {\r\n        string productName;\r\n    \tuint productId;\r\n    \taddress payable productSeller;\r\n    \tstring productStatus;\r\n    \tuint productQuantity;\r\n    \tuint productPrice;\r\n    }\r\n    \r\n    // Details about the Transactions made by the customers\r\n    struct OrderLog {\r\n        uint productId;\r\n        uint amtpaid;\r\n        uint256 timeStamp;\r\n        OrderStatus orderStatus;\r\n    }\r\n\r\n    // Maintain product block history \r\n    mapping(address => uint[]) productBrought;                  // buyer's address (account) to productId\r\n    mapping(uint => Product) productDetails;                    // ProductId with Product Details\r\n    uint8 productBroughtCount;                                  // number of products ever bought\r\n\r\n\r\n    // Product Status\r\n    mapping(uint => OrderLog) productOrderStatus;               // Mapping the product Id with the order log\r\n    uint productPlacedCount;                                    // No. of product placed to the customer\r\n    uint productShippedCount;                                   // No. of product shipped to the customer\r\n    uint productDeliveredCount;                                 // No. of orders delivered\r\n\r\n    \r\n    \r\n    // function getProductDetailsFromSeller (uint _productId) public {\r\n    //     if (productDetails[_productId].productSeller == 0x0000000000000000000000000000000000000000){\r\n    //         Seller _product = new Seller();\r\n    //         Product memory _getProduct;\r\n    //         (_getProduct.productName, _getProduct.productId, _getProduct.productSeller, _getProduct.productStatus, _getProduct.productQuantity, _getProduct.productPrice) = _product.getProductDetails(_productId);\r\n            \r\n    //         productDetails[_productId] = _getProduct;\r\n    //     }\r\n    // }\r\n    \r\n    function getProductDetailsFromSeller(string memory _productName, uint _productQuantity, uint _productPrice, address payable _productSeller) public {\r\n        // Registering the product\r\n        uint _productId = productBroughtCount ++;\r\n        productDetails[_productId] = Product(_productName, _productId, _productSeller, \"Available\", _productQuantity, _productPrice);\r\n    }\r\n    \r\n    // place order\r\n    function orderPlaced (uint _productId, uint _productQuantity) public payable returns (address, uint, uint) {\r\n        // Add the item (product's id) into the buyer's bought list\r\n        productBrought[msg.sender].push(_productId);\r\n        // getProductDetailsFromSeller(_productId);\r\n        \r\n        Product memory _getProduct = productDetails[_productId];\r\n        uint _amtpaid = _productQuantity * _getProduct.productPrice;\r\n\r\n        \r\n        transferAmount(_getProduct.productSeller, _amtpaid);\r\n        productOrderStatus[_productId] = OrderLog(_productId, _amtpaid, block.timestamp, OrderStatus.Placed);\r\n        \r\n        productPlacedCount++;\r\n        return (_getProduct.productSeller, _getProduct.productPrice, _productQuantity);\r\n    }\r\n    \r\n    function transferAmount(address payable _sellerAdd, uint _amtpaid) private {\r\n        require(_amtpaid <= address(this).balance, \"Insufficient balance.\");\r\n        _sellerAdd.transfer(_amtpaid);\r\n    }\r\n\r\n    function getPlacedProductCount() public view returns(uint) {\r\n        return productPlacedCount;\r\n    }\r\n\r\n  \r\n\r\n    // order shipped\r\n    function orderShipped (uint _productId) public {\r\n        require (productOrderStatus[_productId].orderStatus == OrderStatus.Placed);\r\n        productOrderStatus[_productId].orderStatus = OrderStatus.Shipped;\r\n        productOrderStatus[_productId].timeStamp = block.timestamp;\r\n        \r\n        productShippedCount++;\r\n    }\r\n    \r\n    function getShippedProductCount() public view returns(uint) {\r\n        return productShippedCount;\r\n        \r\n    }\r\n\r\n\r\n\r\n    // order delivered\r\n    function orderDelivered (uint _productId) public {\r\n        require (productOrderStatus[_productId].orderStatus == OrderStatus.Shipped);\r\n        productOrderStatus[_productId].orderStatus = OrderStatus.Delivered;\r\n        productOrderStatus[_productId].timeStamp = block.timestamp;\r\n        \r\n        productDeliveredCount++;\r\n    }\r\n    \r\n    function getDeliveredProductCount()  public view returns(uint) {\r\n        return productDeliveredCount;\r\n    }\r\n\r\n\r\n\r\n    // miscellaneous function\r\n    function getProductDetails (uint _productId) public view returns(string memory, uint, address, string memory, uint, uint) {\r\n    \treturn (\r\n        \tproductDetails[_productId].productName,\r\n        \tproductDetails[_productId].productId,\r\n        \tproductDetails[_productId].productSeller,\r\n        \tproductDetails[_productId].productStatus,\r\n        \tproductDetails[_productId].productQuantity,\r\n        \tproductDetails[_productId].productPrice\r\n    \t);\r\n\t}  \r\n    \r\n    function getOrderLog(uint _productId) public view returns(uint, uint, uint, OrderStatus) {\r\n        return(\r\n            productOrderStatus[_productId].productId,\r\n            productOrderStatus[_productId].amtpaid,\r\n            productOrderStatus[_productId].timeStamp,\r\n            productOrderStatus[_productId].orderStatus\r\n        );\r\n    }\r\n    \r\n    function putMoney() external payable{\r\n        \r\n    }\r\n    \r\n    function getBalance () public view returns(uint){\r\n        return address(this).balance;\r\n    }\r\n}\r\n",
  "sourcePath": "G:/Backup/BC/Block Chain Project/contracts/Customer.sol",
  "compiler": {
    "name": "solc",
    "version": "0.5.16+commit.9c3226ce.Emscripten.clang"
  },
  "schemaVersion": "3.3.2",
  "updatedAt": "2020-12-06T14:18:58.474Z",
  "networkType": "ethereum",
  "devdoc": {
    "methods": {}
  },
  "userdoc": {
    "methods": {}
  }
}