{
  "contractName": "Seller",
  "abi": [
    {
      "constant": false,
      "inputs": [
        {
          "internalType": "string",
          "name": "_productName",
          "type": "string"
        },
        {
          "internalType": "uint256",
          "name": "_productQuantity",
          "type": "uint256"
        },
        {
          "internalType": "uint256",
          "name": "_productPrice",
          "type": "uint256"
        }
      ],
      "name": "registerProduct",
      "outputs": [],
      "payable": false,
      "stateMutability": "nonpayable",
      "type": "function"
    },
    {
      "constant": true,
      "inputs": [],
      "name": "getRegisteredProductCount",
      "outputs": [
        {
          "internalType": "uint256",
          "name": "",
          "type": "uint256"
        }
      ],
      "payable": false,
      "stateMutability": "view",
      "type": "function"
    },
    {
      "constant": true,
      "inputs": [
        {
          "internalType": "uint256",
          "name": "_productId",
          "type": "uint256"
        }
      ],
      "name": "getProductDetails",
      "outputs": [
        {
          "internalType": "string",
          "name": "",
          "type": "string"
        },
        {
          "internalType": "uint256",
          "name": "",
          "type": "uint256"
        },
        {
          "internalType": "address",
          "name": "",
          "type": "address"
        },
        {
          "internalType": "string",
          "name": "",
          "type": "string"
        },
        {
          "internalType": "uint256",
          "name": "",
          "type": "uint256"
        },
        {
          "internalType": "uint256",
          "name": "",
          "type": "uint256"
        }
      ],
      "payable": false,
      "stateMutability": "view",
      "type": "function"
    },
    {
      "constant": false,
      "inputs": [
        {
          "internalType": "uint256",
          "name": "_productId",
          "type": "uint256"
        },
        {
          "internalType": "uint256",
          "name": "_productQuantity",
          "type": "uint256"
        },
        {
          "internalType": "address",
          "name": "_buyerAddress",
          "type": "address"
        },
        {
          "internalType": "string",
          "name": "_buyerName",
          "type": "string"
        }
      ],
      "name": "sellProduct",
      "outputs": [],
      "payable": false,
      "stateMutability": "nonpayable",
      "type": "function"
    },
    {
      "constant": true,
      "inputs": [
        {
          "internalType": "uint256",
          "name": "_productId",
          "type": "uint256"
        }
      ],
      "name": "getOrderIds",
      "outputs": [
        {
          "internalType": "uint256[]",
          "name": "",
          "type": "uint256[]"
        }
      ],
      "payable": false,
      "stateMutability": "view",
      "type": "function"
    },
    {
      "constant": true,
      "inputs": [
        {
          "internalType": "uint256",
          "name": "_orderId",
          "type": "uint256"
        }
      ],
      "name": "getProductTransactionStatus",
      "outputs": [
        {
          "internalType": "uint256",
          "name": "",
          "type": "uint256"
        },
        {
          "internalType": "string",
          "name": "",
          "type": "string"
        },
        {
          "internalType": "address",
          "name": "",
          "type": "address"
        },
        {
          "internalType": "enum Seller.TransactionStatus",
          "name": "",
          "type": "uint8"
        },
        {
          "internalType": "uint256",
          "name": "",
          "type": "uint256"
        }
      ],
      "payable": false,
      "stateMutability": "view",
      "type": "function"
    },
    {
      "constant": true,
      "inputs": [],
      "name": "getSoldCount",
      "outputs": [
        {
          "internalType": "uint256",
          "name": "",
          "type": "uint256"
        }
      ],
      "payable": false,
      "stateMutability": "view",
      "type": "function"
    },
    {
      "constant": false,
      "inputs": [
        {
          "internalType": "uint256",
          "name": "_orderId",
          "type": "uint256"
        },
        {
          "internalType": "uint256",
          "name": "_productPrice",
          "type": "uint256"
        }
      ],
      "name": "deliverProduct",
      "outputs": [],
      "payable": false,
      "stateMutability": "nonpayable",
      "type": "function"
    },
    {
      "constant": true,
      "inputs": [],
      "name": "getDeliveredProductCount",
      "outputs": [
        {
          "internalType": "uint256",
          "name": "",
          "type": "uint256"
        }
      ],
      "payable": false,
      "stateMutability": "view",
      "type": "function"
    },
    {
      "constant": true,
      "inputs": [],
      "name": "getBalance",
      "outputs": [
        {
          "internalType": "uint256",
          "name": "",
          "type": "uint256"
        }
      ],
      "payable": false,
      "stateMutability": "view",
      "type": "function"
    }
  ],
  "bytecode": "0x608060405234801561001057600080fd5b5061182b806100206000396000f3fe608060405234801561001057600080fd5b506004361061009e5760003560e01c80637961e502116100665780637961e502146101505780638d104b691461016c5780639c13c2ad14610188578063ca160d97146101b8578063f20f8e41146101ec5761009e565b806312065fe0146100a35780634573dddd146100c157806349311f33146100df57806351cb394c146100fd5780636813b53b1461011b575b600080fd5b6100ab610208565b6040516100b891906115b6565b60405180910390f35b6100c9610227565b6040516100d691906115b6565b60405180910390f35b6100e7610231565b6040516100f491906115b6565b60405180910390f35b61010561023b565b60405161011291906115b6565b60405180910390f35b61013560048036036101309190810190611260565b610245565b60405161014796959493929190611547565b60405180910390f35b61016a60048036036101659190810190611289565b610444565b005b610186600480360361018191908101906112c5565b6106f6565b005b6101a2600480360361019d9190810190611260565b610bb9565b6040516101af9190611525565b60405180910390f35b6101d260048036036101cd9190810190611260565b610c24565b6040516101e39594939291906115d1565b60405180910390f35b610206600480360361020191908101906111f9565b610d81565b005b60003373ffffffffffffffffffffffffffffffffffffffff1631905090565b6000600254905090565b6000600654905090565b6000600554905090565b60606000806060600080600160008881526020019081526020016000206000016001600089815260200190815260200160002060010154600160008a815260200190815260200160002060020160009054906101000a900473ffffffffffffffffffffffffffffffffffffffff16600160008b8152602001908152602001600020600301600160008c815260200190815260200160002060040154600160008d815260200190815260200160002060050154858054600181600116156101000203166002900480601f01602080910402602001604051908101604052809291908181526020018280546001816001161561010002031660029004801561038c5780601f106103615761010080835404028352916020019161038c565b820191906000526020600020905b81548152906001019060200180831161036f57829003601f168201915b50505050509550828054600181600116156101000203166002900480601f0160208091040260200160405190810160405280929190818152602001828054600181600116156101000203166002900480156104285780601f106103fd57610100808354040283529160200191610428565b820191906000526020600020905b81548152906001019060200180831161040b57829003601f168201915b5050505050925095509550955095509550955091939550919395565b61044c611013565b600460008481526020019081526020016000206040518060a00160405290816000820154815260200160018201548152602001600282016040518060400160405290816000820160009054906101000a900473ffffffffffffffffffffffffffffffffffffffff1673ffffffffffffffffffffffffffffffffffffffff1673ffffffffffffffffffffffffffffffffffffffff168152602001600182018054600181600116156101000203166002900480601f01602080910402602001604051908101604052809291908181526020018280546001816001161561010002031660029004801561057d5780601f106105525761010080835404028352916020019161057d565b820191906000526020600020905b81548152906001019060200180831161056057829003601f168201915b50505050508152505081526020016004820160009054906101000a900460ff1660018111156105a857fe5b60018111156105b357fe5b815260200160058201548152505090506105cc83610f41565b1580156105dc5750818160800151145b6105e557600080fd5b6001816060019060018111156105f757fe5b9081600181111561060457fe5b81525050428160200181815250506006600081548092919060010191905055508060046000858152602001908152602001600020600082015181600001556020820151816001015560408201518160020160008201518160000160006101000a81548173ffffffffffffffffffffffffffffffffffffffff021916908373ffffffffffffffffffffffffffffffffffffffff16021790555060208201518160010190805190602001906106b8929190611053565b50505060608201518160040160006101000a81548160ff021916908360018111156106df57fe5b021790555060808201518160050155905050505050565b6106fe6110d3565b600160008681526020019081526020016000206040518060e0016040529081600082018054600181600116156101000203166002900480601f0160208091040260200160405190810160405280929190818152602001828054600181600116156101000203166002900480156107b55780601f1061078a576101008083540402835291602001916107b5565b820191906000526020600020905b81548152906001019060200180831161079857829003601f168201915b50505050508152602001600182015481526020016002820160009054906101000a900473ffffffffffffffffffffffffffffffffffffffff1673ffffffffffffffffffffffffffffffffffffffff1673ffffffffffffffffffffffffffffffffffffffff168152602001600382018054600181600116156101000203166002900480601f0160208091040260200160405190810160405280929190818152602001828054600181600116156101000203166002900480156108b75780601f1061088c576101008083540402835291602001916108b7565b820191906000526020600020905b81548152906001019060200180831161089a57829003601f168201915b50505050508152602001600482015481526020016005820154815260200160068201548152505090506108e985610f97565b80156108f55750600084115b8015610905575083816080015110155b61090e57600080fd5b60008160a001518502905084826080018181510391508181525050600082608001511415610975576040518060400160405280600881526020017f536f6c64204f757400000000000000000000000000000000000000000000000081525082606001819052505b600060056000815480929190600101919050559050600360008881526020019081526020016000208190806001815401808255809150509060018203906000526020600020016000909192909190915055506040518060a0016040528088815260200142815260200160405180604001604052808873ffffffffffffffffffffffffffffffffffffffff16815260200187815250815260200160006001811115610a1b57fe5b81526020018381525060046000838152602001908152602001600020600082015181600001556020820151816001015560408201518160020160008201518160000160006101000a81548173ffffffffffffffffffffffffffffffffffffffff021916908373ffffffffffffffffffffffffffffffffffffffff1602179055506020820151816001019080519060200190610ab7929190611053565b50505060608201518160040160006101000a81548160ff02191690836001811115610ade57fe5b02179055506080820151816005015590505082600160008981526020019081526020016000206000820151816000019080519060200190610b20929190611053565b506020820151816001015560408201518160020160006101000a81548173ffffffffffffffffffffffffffffffffffffffff021916908373ffffffffffffffffffffffffffffffffffffffff1602179055506060820151816003019080519060200190610b8e929190611053565b506080820151816004015560a0820151816005015560c0820151816006015590505050505050505050565b606060036000838152602001908152602001600020805480602002602001604051908101604052809291908181526020018280548015610c1857602002820191906000526020600020905b815481526020019060010190808311610c04575b50505050509050919050565b6000606060008060006004600087815260200190815260200160002060010154600460008881526020019081526020016000206002016001016004600089815260200190815260200160002060020160000160009054906101000a900473ffffffffffffffffffffffffffffffffffffffff16600460008a815260200190815260200160002060040160009054906101000a900460ff16600460008b815260200190815260200160002060050154838054600181600116156101000203166002900480601f016020809104026020016040519081016040528092919081815260200182805460018160011615610100020316600290048015610d675780601f10610d3c57610100808354040283529160200191610d67565b820191906000526020600020905b815481529060010190602001808311610d4a57829003601f168201915b505050505093509450945094509450945091939590929450565b6000600260008154809291906001019190505590506000803373ffffffffffffffffffffffffffffffffffffffff1673ffffffffffffffffffffffffffffffffffffffff1681526020019081526020016000208190806001815401808255809150509060018203906000526020600020016000909192909190915055506040518060e001604052808581526020018281526020013373ffffffffffffffffffffffffffffffffffffffff1681526020016040518060400160405280600981526020017f417661696c61626c650000000000000000000000000000000000000000000000815250815260200184815260200183815260200142815250600160008381526020019081526020016000206000820151816000019080519060200190610eab929190611053565b506020820151816001015560408201518160020160006101000a81548173ffffffffffffffffffffffffffffffffffffffff021916908373ffffffffffffffffffffffffffffffffffffffff1602179055506060820151816003019080519060200190610f19929190611053565b506080820151816004015560a0820151816005015560c0820151816006015590505050505050565b6000600180811115610f4f57fe5b6004600084815260200190815260200160002060040160009054906101000a900460ff166001811115610f7e57fe5b1415610f8d5760019050610f92565b600090505b919050565b6000604051602001610fa890611510565b6040516020818303038152906040528051906020012060016000848152602001908152602001600020600301604051602001610fe491906114f9565b604051602081830303815290604052805190602001201415611009576001905061100e565b600090505b919050565b6040518060a001604052806000815260200160008152602001611034611126565b81526020016000600181111561104657fe5b8152602001600081525090565b828054600181600116156101000203166002900490600052602060002090601f016020900481019282601f1061109457805160ff19168380011785556110c2565b828001600101855582156110c2579182015b828111156110c15782518255916020019190600101906110a6565b5b5090506110cf9190611156565b5090565b6040518060e001604052806060815260200160008152602001600073ffffffffffffffffffffffffffffffffffffffff168152602001606081526020016000815260200160008152602001600081525090565b6040518060400160405280600073ffffffffffffffffffffffffffffffffffffffff168152602001606081525090565b61117891905b8082111561117457600081600090555060010161115c565b5090565b90565b60008135905061118a816117ba565b92915050565b600082601f8301126111a157600080fd5b81356111b46111af82611658565b61162b565b915080825260208301602083018583830111156111d057600080fd5b6111db83828461175a565b50505092915050565b6000813590506111f3816117d1565b92915050565b60008060006060848603121561120e57600080fd5b600084013567ffffffffffffffff81111561122857600080fd5b61123486828701611190565b9350506020611245868287016111e4565b9250506040611256868287016111e4565b9150509250925092565b60006020828403121561127257600080fd5b6000611280848285016111e4565b91505092915050565b6000806040838503121561129c57600080fd5b60006112aa858286016111e4565b92505060206112bb858286016111e4565b9150509250929050565b600080600080608085870312156112db57600080fd5b60006112e9878288016111e4565b94505060206112fa878288016111e4565b935050604061130b8782880161117b565b925050606085013567ffffffffffffffff81111561132857600080fd5b61133487828801611190565b91505092959194509250565b600061134c83836114db565b60208301905092915050565b611361816116f9565b82525050565b6000611372826116a9565b61137c81856116cc565b935061138783611684565b8060005b838110156113b857815161139f8882611340565b97506113aa836116bf565b92505060018101905061138b565b5085935050505092915050565b6113ce81611748565b82525050565b60006113df826116b4565b6113e981856116dd565b93506113f9818560208601611769565b6114028161179c565b840191505092915050565b60008154600181166000811461142a576001811461144f57611493565b607f600283041661143b81876116ee565b955060ff1983168652808601935050611493565b6002820461145d81876116ee565b955061146885611694565b60005b8281101561148a5781548189015260018201915060208101905061146b565b82880195505050505b505092915050565b60006114a86009836116ee565b91507f417661696c61626c6500000000000000000000000000000000000000000000006000830152600982019050919050565b6114e48161173e565b82525050565b6114f38161173e565b82525050565b6000611505828461140d565b915081905092915050565b600061151b8261149b565b9150819050919050565b6000602082019050818103600083015261153f8184611367565b905092915050565b600060c082019050818103600083015261156181896113d4565b905061157060208301886114ea565b61157d6040830187611358565b818103606083015261158f81866113d4565b905061159e60808301856114ea565b6115ab60a08301846114ea565b979650505050505050565b60006020820190506115cb60008301846114ea565b92915050565b600060a0820190506115e660008301886114ea565b81810360208301526115f881876113d4565b90506116076040830186611358565b61161460608301856113c5565b61162160808301846114ea565b9695505050505050565b6000604051905081810181811067ffffffffffffffff8211171561164e57600080fd5b8060405250919050565b600067ffffffffffffffff82111561166f57600080fd5b601f19601f8301169050602081019050919050565b6000819050602082019050919050565b60008190508160005260206000209050919050565b600081519050919050565b600081519050919050565b6000602082019050919050565b600082825260208201905092915050565b600082825260208201905092915050565b600081905092915050565b60006117048261171e565b9050919050565b6000819050611719826117ad565b919050565b600073ffffffffffffffffffffffffffffffffffffffff82169050919050565b6000819050919050565b60006117538261170b565b9050919050565b82818337600083830152505050565b60005b8381101561178757808201518184015260208101905061176c565b83811115611796576000848401525b50505050565b6000601f19601f8301169050919050565b600281106117b757fe5b50565b6117c3816116f9565b81146117ce57600080fd5b50565b6117da8161173e565b81146117e557600080fd5b5056fea365627a7a72315820c31327c51ca5d17a239e0819638c40f218dc138db21a88c342d0ca560de181f96c6578706572696d656e74616cf564736f6c63430005100040",
  "source": "// SPDX-License-Identifier: GPL-3.0\r\npragma solidity >=0.4.0 <0.8.0;\r\npragma experimental ABIEncoderV2;\r\n\r\ncontract Seller {\r\n    enum TransactionStatus { Sold, Delivered }\r\n    \r\n    struct Buyer {\r\n        address buyerAdd;\r\n        string buyerName;\r\n    }\r\n    \r\n    struct Product {\r\n        string productName;\r\n        uint productId;\r\n        address productSeller;\r\n        string productStatus;\r\n        uint productQuantity;\r\n        uint productPrice;\r\n        uint timeStamp;                     // timestamp for Resgistration \r\n    }\r\n    \r\n    struct TransitLog {\r\n        uint productId;\r\n        uint timeStamp;\r\n        Buyer buyerInfo;\r\n        TransactionStatus transactionStatus;\r\n        uint amount;\r\n    }\r\n\r\n    // Registring the products\r\n    mapping(address => uint[]) productRegisteredBySeller;        // Number of items under a seller's name (address)\r\n    mapping(uint => Product) productDetails;                     // Product details mapped to their product's Id\r\n    uint productRegCount;                                        // number of Product registered by the seller\r\n\r\n\r\n    // Product Status\r\n     mapping(uint => uint[]) productTransitLog;                 // product Id mapped to mulptiple order id's generated when the product is beng sold / delivered\r\n     mapping(uint => TransitLog) productTransactionStatus;      // Mapping the product Id with the transaction log\r\n     uint productSoldCount;                                     // No. of product sold\r\n     uint productDeliveredCount;                                // No. of product delivered\r\n\r\n\r\n    function registerProduct(string memory _productName, uint _productQuantity, uint _productPrice) public {\r\n        // Registering the product\r\n        uint _productId = productRegCount ++;\r\n        productRegisteredBySeller[msg.sender].push(_productId);\r\n        productDetails[_productId] = Product(_productName, _productId, msg.sender, \"Available\", _productQuantity, _productPrice, block.timestamp);\r\n    }\r\n    \r\n    function getRegisteredProductCount() public view returns(uint) {\r\n        return productRegCount;\r\n    }\r\n\r\n    function getProductDetails (uint _productId) public view returns(string memory, uint, address, string memory, uint, uint) {\r\n    \treturn (\r\n        \tproductDetails[_productId].productName ,\r\n            // \"Vida\",\r\n        \tproductDetails[_productId].productId,\r\n        \tproductDetails[_productId].productSeller,\r\n        \tproductDetails[_productId].productStatus,\r\n        \tproductDetails[_productId].productQuantity,\r\n        \tproductDetails[_productId].productPrice\r\n    \t);\r\n\t}\r\n    \r\n\r\n\r\n\r\n    // Let's sell it\r\n    function sellProduct(uint _productId, uint _productQuantity, address _buyerAddress, string memory _buyerName)  public {\r\n    \tProduct memory _product = productDetails[_productId];\r\n    \trequire(\r\n    \t    isAvailable(_productId) && _productQuantity > 0\r\n          && _product.productQuantity >= _productQuantity\r\n        );\r\n    \t\r\n    \t\r\n        // Update registered product (quantity & price)\r\n    \tuint sellingPrice = _productQuantity * _product.productPrice;\r\n    \t_product.productQuantity -= _productQuantity;\r\n    \t\r\n    \t\r\n    \t// Update productStatus of product (in case of sold out)\r\n    \tif(_product.productQuantity == 0){\r\n            _product.productStatus = \"Sold Out\";\r\n    \t}\r\n   \t \r\n        // Creating order log\r\n        // uint _orderId = uint(keccak256(abi.encodePacked(_productId, _buyerAddress, ProductSoldCount)));\r\n        uint _orderId = productSoldCount++;\r\n        productTransitLog[_productId].push(_orderId);\r\n\r\n    \t\r\n    \t// Update in transit log for sold products (based upon order id)\r\n    \tproductTransactionStatus[_orderId] = (TransitLog(_productId, block.timestamp, Buyer(_buyerAddress, _buyerName), TransactionStatus.Sold, sellingPrice));\r\n    \t\r\n    \t\r\n    \t// Updating the changes in productDetails map & increasing the ProductSoldCount (quantity sold)\r\n    \tproductDetails[_productId] = _product;\r\n\t}\r\n\t\r\n\tfunction isAvailable(uint _productId) private view returns (bool) {\r\n\t    if (keccak256(abi.encodePacked(productDetails[_productId].productStatus)) == keccak256(abi.encodePacked(\"Available\"))){\r\n\t        return true;\r\n\t    }\r\n\t    return false;\r\n\t}\r\n\t\r\n\tfunction getOrderIds(uint _productId) public view returns(uint[] memory) {\r\n        // \treturn all the orderIds associated with the given product Id\r\n    \treturn productTransitLog[_productId];\r\n\t}\r\n\r\n    function getProductTransactionStatus (uint _orderId) public view returns( uint, string memory, address, TransactionStatus, uint) {\r\n    \treturn (\r\n        \tproductTransactionStatus[_orderId].timeStamp,\r\n        \tproductTransactionStatus[_orderId].buyerInfo.buyerName,\r\n        \tproductTransactionStatus[_orderId].buyerInfo.buyerAdd,\r\n        \tproductTransactionStatus[_orderId].transactionStatus,\r\n        \tproductTransactionStatus[_orderId].amount\r\n    \t);\r\n\t}\r\n    \r\n\tfunction getSoldCount() public view returns(uint) {\r\n    \treturn productSoldCount;\r\n\t}\r\n    \r\n\r\n\r\n\r\n    // Let's deliver it\r\n    function deliverProduct (uint _orderId, uint _productPrice) public {\r\n        TransitLog memory _order = productTransactionStatus[_orderId];\r\n        \r\n        require (!isDelivered(_orderId) && _order.amount ==  _productPrice);\r\n\r\n        \r\n        _order.transactionStatus = TransactionStatus.Delivered;\r\n        _order.timeStamp = block.timestamp;\r\n        productDeliveredCount ++;\r\n\r\n        \r\n        productTransactionStatus[_orderId] = _order;\r\n\t}\r\n    \r\n    function isDelivered(uint _orderId) private view returns(bool) {\r\n        if (productTransactionStatus[_orderId].transactionStatus == TransactionStatus.Delivered){\r\n            return true;\r\n        }\r\n        return false;\r\n    }\r\n    \r\n    function getDeliveredProductCount() public view returns(uint) {\r\n        return productDeliveredCount;\r\n    }\r\n\r\n    function getBalance () public view returns(uint){\r\n    \treturn msg.sender.balance;\r\n\t}\r\n}",
  "sourcePath": "G:/Backup/BC/Block Chain Project/contracts/Supplier.sol",
  "compiler": {
    "name": "solc",
    "version": "0.5.16+commit.9c3226ce.Emscripten.clang"
  },
  "schemaVersion": "3.3.2",
  "updatedAt": "2020-12-06T14:18:58.419Z",
  "networkType": "ethereum",
  "devdoc": {
    "methods": {}
  },
  "userdoc": {
    "methods": {}
  }
}